:030000000208A74C
:0C08A700787FE4F6D8FD75810902080096
:10080000758920758DFA758780D28E759840E4F5CC
:1008100008F509E5092461F5997F327E0012088503
:100820000509E50970020508D39419E5089400400C
:10083000E275990A7F327E0012088575990D7F3224
:100840007E00120885E4F508F509E5092441F599CB
:100850007F327E001208850509E50970020508D37C
:100860009419E508940040E275990A7F327E0012DF
:10087000088575990D7F327E001208857FF47E0110
:050880001208858089CB
:100885007D017C00D3ED9FEC9E50167B017A000B19
:10089500BB00010AEB647E4A70F50DBD00010C80BA
:0108A500E36F
:0108A600222F
:00000001FF
