:03000000020800F3
:0C080000787FE4F6D8FD758120020847DF
:1008C3007D017C00D3ED9FEC9E50167B017A000BDB
:1008D300BB00010AEB647E4A70F50DBD00010C807C
:0108E300E331
:0108E40022F1
:0208F300C10042
:10088C00758901C28D758A82758C3575A88275B88B
:10089C0002D28C7509FE8509907508323000FDE591
:1008AC000925E04401F509F470037509FE850990EA
:0708BC00750832C20080E55F
:03000B000208E503
:0E08E500D50802D200758A82758C35D2AF32EA
:10080C0002088CE493A3F8E493A34003F68001F26E
:10081C0008DFF48029E493A3F85407240CC8C333ED
:10082C00C4540F4420C8834004F456800146F6DFBC
:10083C00E4800B01020408102040809008F3E47E51
:10084C00019360BCA3FF543F30E509541FFEE493B1
:10085C00A360010ECF54C025E060A840B8E493A378
:10086C00FAE493A3F8E493A3C8C582C8CAC583CAA3
:10087C00F0A3C8C582C8CAC583CADFE9DEE780BE5B
:0108F5000002
:00000001FF
