:03000000020800F3
:0C080000787FE4F6D8FD758120020847DF
:0208EA00C1004B
:10088C007588017FE87E031208C5D2A8D2AFD2B812
:10089C007508FE8508903000FDC2AFE50825E044E0
:1008AC0001F508F470037508FE8508907F147E002E
:0908BC001208C5D2AFC20080DDB4
:030003000208E709
:0308E700D200320A
:1008C5007D017C00D3ED9FEC9E50167B017A000BD9
:1008D500BB00010AEB647E4A70F50DBD00010C807A
:0108E500E32F
:0108E60022EF
:10080C0002088CE493A3F8E493A34003F68001F26E
:10081C0008DFF48029E493A3F85407240CC8C333ED
:10082C00C4540F4420C8834004F456800146F6DFBC
:10083C00E4800B01020408102040809008EAE47E5A
:10084C00019360BCA3FF543F30E509541FFEE493B1
:10085C00A360010ECF54C025E060A840B8E493A378
:10086C00FAE493A3F8E493A3C8C582C8CAC583CAA3
:10087C00F0A3C8C582C8CAC583CADFE9DEE780BE5B
:0108EC00000B
:00000001FF
