:03000000020800F3
:0C080000787FE4F6D8FD758113020847EC
:0C08B3000A08BF86CBCFE3EDFD87FFEF06
:10088C00E4F512F51374082513F8E6F5907F007E55
:10089C00921208C00513E51370020512D39409E5F2
:0708AC0012940040E080D926
:0B08C000EF1FAC0670011E4C70F6220A
:10080C0002088CE493A3F8E493A34003F68001F26E
:10081C0008DFF48029E493A3F85407240CC8C333ED
:10082C00C4540F4420C8834004F456800146F6DFBC
:10083C00E4800B01020408102040809008B3E47E91
:10084C00019360BCA3FF543F30E509541FFEE493B1
:10085C00A360010ECF54C025E060A840B8E493A378
:10086C00FAE493A3F8E493A3C8C582C8CAC583CAA3
:10087C00F0A3C8C582C8CAC583CADFE9DEE780BE5B
:0108BF000038
:00000001FF
