:03000000020800F3
:0C080000787FE4F6D8FD758120020847DF
:10096000C102C100C10102084E20010E14020A009A
:0509700000020C000074
:10088C00AE08AF09AB07AA06E4C39BFBE49AFA7463
:10089C00019400F9E49400F8E50E75F06484FFE42B
:1008AC00FCFDFE1208EDC3E49FF50BE49EF50AC3B4
:1008BC00E509950BF50DE508950AF50C758901C24E
:1008CC008DE4F58AF58C75A88275B802D28C30004F
:1008DC0006D280C20080F7300106C280C20180F7C8
:0108EC0022E9
:03000B0002093CAB
:10093C00C0E020020ED200D202E50AF58AE50BF5E2
:10094C008C800CD201C202E50CF58AE50DF58CD237
:04095C00AFD0E03206
:10080C0002088CE493A3F8E493A34003F68001F26E
:10081C0008DFF48029E493A3F85407240CC8C333ED
:10082C00C4540F4420C8834004F456800146F6DFBC
:10083C00E4800B0102040810204080900960E47EE3
:10084C00019360BCA3FF543F30E509541FFEE493B1
:10085C00A360010ECF54C025E060A840B8E493A378
:10086C00FAE493A3F8E493A3C8C582C8CAC583CAA3
:10087C00F0A3C8C582C8CAC583CADFE9DEE780BE5B
:010975000081
:1008ED00E88FF0A4CC8BF0A42CFCE98EF0A42CFCAA
:1008FD008AF0EDA42CFCEA8EF0A4CDA8F08BF0A428
:10090D002DCC3825F0FDE98FF0A42CCD35F0FCEB86
:10091D008EF0A4FEA9F0EB8FF0A4CFC5F02ECD394B
:0F092D00FEE43CFCEAA42DCE35F0FDE43CFC22B8
:00000001FF
