:03000000020800F3
:0C080000787FE4F6D8FD758120020847DF
:10095F00C102C100C10102084E20010E14020A009B
:05096F0000020C000075
:10088C00AE08AF09AB07AA06E4C39BFBE49AFA7463
:10089C00019400F9E49400F8E50E75F06484FFE42B
:1008AC00FCFDFE1208ECC3E49FF50BE49EF50AC3B5
:1008BC00E509950BF50DE508950AF50C758901C24E
:1008CC008DE4F58AF58C75A88275B802D28C30004F
:1008DC0006D280C20080F73001F4C280C20180EEE3
:03000B0002093BAC
:10093B00C0E020020ED200D202E50AF58AE50BF5E3
:10094B008C800CD201C202E50CF58AE50DF58CD238
:04095B00AFD0E03207
:10080C0002088CE493A3F8E493A34003F68001F26E
:10081C0008DFF48029E493A3F85407240CC8C333ED
:10082C00C4540F4420C8834004F456800146F6DFBC
:10083C00E4800B010204081020408090095FE47EE4
:10084C00019360BCA3FF543F30E509541FFEE493B1
:10085C00A360010ECF54C025E060A840B8E493A378
:10086C00FAE493A3F8E493A3C8C582C8CAC583CAA3
:10087C00F0A3C8C582C8CAC583CADFE9DEE780BE5B
:010974000082
:1008EC00E88FF0A4CC8BF0A42CFCE98EF0A42CFCAB
:1008FC008AF0EDA42CFCEA8EF0A4CDA8F08BF0A429
:10090C002DCC3825F0FDE98FF0A42CCD35F0FCEB87
:10091C008EF0A4FEA9F0EB8FF0A4CFC5F02ECD394C
:0F092C00FEE43CFCEAA42DCE35F0FDE43CFC22B9
:00000001FF
