:0300000002089B58
:0C089B00787FE4F6D8FD7581200208E2A9
:10096F00C100C1010113000114000115000116009F
:10097F00011700011800011900011A000A09407936
:08098F0034301C120278001044
:1009270075800E74092513F8E6F5907F017E001295
:10093700099875800D74092514F8E6F5907F017EF6
:100947000012099875800B74092515F8E6F5907F54
:10095700017E0012099875800774092516F8E6F5D7
:08096700907F017E0002099857
:10080000758911C28DC28F758AC3758C50758BC363
:10081000758D5075A88AD28CD28E750814300071EF
:10082000051705180519051AAF177E00BE0308BF86
:10083000E8050513E4F517E518646470040514F57C
:1008400018E519640A70040515F519E51A640170B4
:10085000040516F51AD3E513940974809480402A90
:10086000D3E514940974809480401FD3E51594094E
:10087000748094804014D3E5169409748094804069
:1008800009E4F513F514F515F516750814C2008082
:0B0890008C300189120927C201808210
:03000B000209BA2D
:0E09BA00D50802D200758AC3758C50D2AF32B8
:03001B000209C80F
:0B09C800D201758BC3758D50D2AF3289
:100998007D017C00D3ED9FEC9E50167B017A000B05
:1009A800BB00010AEB647E4A70F50DBD00010C80A6
:0109B800E35B
:0109B900221B
:1008A700020800E493A3F8E493A34003F68001F25F
:1008B70008DFF48029E493A3F85407240CC8C33352
:1008C700C4540F4420C8834004F456800146F6DF21
:1008D700E4800B010204081020408090096FE47E39
:1008E700019360BCA3FF543F30E509541FFEE49316
:1008F700A360010ECF54C025E060A840B8E493A3DD
:10090700FAE493A3F8E493A3C8C582C8CAC583CA07
:10091700F0A3C8C582C8CAC583CADFE9DEE780BEBF
:01099700005F
:00000001FF
