:0300000002088D66
:0C088D00787FE4F6D8FD7581200208D4C5
:10096400C100C101011400011500011600011700A6
:10097400011800011900011A000A0A4079243019EB
:050984001202780010D2
:10091900AF097E00EF6401700B75800E740A25140F
:10092900F8E6F590EF64024E700B75800D740A2598
:1009390015F8E6F590E5096403700B75800B740AE8
:100949002516F8E6F590E5096404700E75800774BC
:0B0959000A2517F8E6F590E4F50922E6
:10080000758901C28D758AC3758C5075A88275B8BB
:1008100002D28C750814E4F50930006A0518051930
:10082000051AAF187E00BE0316BFE8130514D3E502
:10083000149409748094804003E4F514E4F518E5F9
:1008400019646470130515D3E515940974809480B8
:100850004003E4F515E4F519E51A640A701305166A
:10086000D3E5169409748094804003E4F516E4F50A
:100870001A0517D3E5179409748094804003E4F5B2
:0D08800017750814C2000509120919808CB3
:03000B0002098A5D
:0E098A00D50802D200758AC3758C50D2AF32E8
:10089900020800E493A3F8E493A34003F68001F26D
:1008A90008DFF48029E493A3F85407240CC8C33360
:1008B900C4540F4420C8834004F456800146F6DF2F
:1008C900E4800B0102040810204080900964E47E52
:1008D900019360BCA3FF543F30E509541FFEE49324
:1008E900A360010ECF54C025E060A840B8E493A3EB
:1008F900FAE493A3F8E493A3C8C582C8CAC583CA16
:10090900F0A3C8C582C8CAC583CADFE9DEE780BECD
:01098900006D
:00000001FF
