:03000000020800F3
:0C080000787FE4F6D8FD758120020847DF
:10095800C100C101011300011400011500011600B6
:0F0968000A094079243019120278001001170093
:1008EF00AF177E00EF700975800E74092513802EE7
:1008FF00EF64014E700975800D74092514801FAFC8
:10090F00177E00EF6402700975800B74092515803E
:10091F000DEF64034E700B75800774092516F8E60A
:03092F00F590221E
:10088C00758901C28D758CEC758A7875A88275B8DE
:10089C0002D28C7508C83000450516D3E5169409AC
:1008AC00748094804033E4F5160515D3E51594094E
:1008BC00748094804023E4F5150514D3E514940951
:1008CC00748094804013E4F5140513D3E513940954
:1008DC00748094804003E4F5137508C8C2001208B4
:0308EC00EF80B3E7
:03000B00020932B5
:10093200C0E0C0D0D50802D2000517D3E517940352
:10094200748094804003751700758CEC758A78D298
:06095200AFD0D0D0E0326E
:10080C0002088CE493A3F8E493A34003F68001F26E
:10081C0008DFF48029E493A3F85407240CC8C333ED
:10082C00C4540F4420C8834004F456800146F6DFBC
:10083C00E4800B0102040810204080900958E47EEB
:10084C00019360BCA3FF543F30E509541FFEE493B1
:10085C00A360010ECF54C025E060A840B8E493A378
:10086C00FAE493A3F8E493A3C8C582C8CAC583CAA3
:10087C00F0A3C8C582C8CAC583CADFE9DEE780BE5B
:01097700007F
:00000001FF
