:0300000002088D66
:0C088D00787FE4F6D8FD7581200208D4C5
:10096F00010900010800010C00010B00C100010D7D
:0A097F0000010E00010F000110003E
:10091900E5094480F5807F017E0012094DE5084410
:1009290040F5807F017E0012094DE50C4420F580D9
:100939007F017E0012094DE50B4410F5807F017E91
:040949000002094D52
:10080000758901C28D758AC3758C5075A88275B8BB
:1008100002D28C750A143000FD050D050E050F057A
:1008200010E50D64017004050BF50DE50E640A700A
:1008300004050CF50EE50F646470040508F50FAFB0
:10084000107E00BE0308BFE8050509E4F510D3E5F6
:1008500009940974809480402AD3E508940974802F
:100860009480401FD3E50C9409748094804014D385
:10087000E50B9409748094804009E4F509F508F5C6
:0D0880000CF50B120919750A32C2008089AF
:03000B0002098A5D
:0E098A00D50A02D200758AC3758C50D2AF32E6
:10094D007D017C00D3ED9FEC9E50167B017A000B50
:10095D00BB00010AEB647E4A70F50DBD00010C80F1
:01096D00E3A6
:01096E002266
:10089900020800E493A3F8E493A34003F68001F26D
:1008A90008DFF48029E493A3F85407240CC8C33360
:1008B900C4540F4420C8834004F456800146F6DF2F
:1008C900E4800B010204081020408090096FE47E47
:1008D900019360BCA3FF543F30E509541FFEE49324
:1008E900A360010ECF54C025E060A840B8E493A3EB
:1008F900FAE493A3F8E493A3C8C582C8CAC583CA16
:10090900F0A3C8C582C8CAC583CADFE9DEE780BECD
:01098900006D
:00000001FF
